:100000000C9434000C9446000C9446000C9446006A
:100010000C9446000C9446000C9446000C94460048
:100020000C9446000C9446000C9446000C94460038
:100030000C9446000C9446000C9446000C94460028
:100040000C9446000C9446000C9446000C94460018
:100050000C9446000C9446000C9446000C94460008
:100060000C9446000C94460011241FBECFEFD8E03C
:10007000DEBFCDBF21E0A0E0B1E001C01D92A03104
:10008000B207E1F70E946A000C942A010C94000068
:10009000EBB1E37CEBB9EBB1880F991F8295929598
:1000A000907F9827807F98278E2B62957295707F1E
:1000B0007627607F7627682B440F551F440F551F06
:1000C000440F551F462B220F331F220F331F242BA3
:1000D0002BB908958AB18C638AB914B861E070E0D5
:1000E000A1E025C0BB2309F46DC0709307016093A4
:1000F000060158E0E1116EC010920901109208014A
:10010000E0E0322F3295330F307EF09300014093C0
:1001100001014BB1437C4BB92BB1880F991F880F5C
:10012000991F822B282F232B2E2B522B5BB933B1F7
:100130003170832F90E090930B0180930A0183B17B
:1001400041E050E0B82FB27081FD02C040E050E0C5
:1001500050930F0140930E0183B141E050E0E82F2E
:10016000E47082FD02C040E050E0509305014093EE
:10017000040183B121E040E0582F587083FF20E054
:10018000F22F20930C0140930D01832F8A2790E0DA
:100190009093030180930201332309F4A3CFB1119B
:1001A0001FC051112DC07093070160930601E1112A
:1001B00040C058E0109209011092080130E0F0E0D0
:1001C00040E0A3CF109207011092060150E0EE2309
:1001D00009F492CF7093090160930801E0E191CF97
:1001E000109207011092060150E0E11119C07093BE
:1001F00009016093080130E0E0E1F0E040E085CFE4
:100200001092070110920601EE23D1F070930901BC
:100210006093080150E0E0E130E0F0E040E075CFAD
:10022000109209011092080130E2E0E0F1E040E0B4
:100230006CCF709309016093080158E0E0E1ECCFC6
:10024000109209011092080150E030E0E0E0F0E087
:0802500040E05BCFF894FFCF02
:00000001FF
