:100000000C9434000C943E000C943E000C943E0082
:100010000C943E000C943E000C943E000C943E0068
:100020000C943E000C943E000C943E000C943E0058
:100030000C943E000C943E000C943E000C943E0048
:100040000C943E000C943E000C943E000C943E0038
:100050000C943E000C943E000C943E000C943E0028
:100060000C943E000C943E0011241FBECFEFD8E04C
:10007000DEBFCDBF0E94E2000C942C010C94000066
:1000800095B1937C95B984FD2A9A85FD2B9A86FDBE
:100090002C9A87FD2D9A299A8AE68A95F1F700C055
:1000A00029988FEC97E00197F1F700C000000895C0
:1000B000CF93C82F2898807F0E9440008C2F829574
:1000C000807F0E9440002FEF89EF90E02150804018
:1000D0009040E1F700C00000CF910895CF93C82F62
:1000E000289A807F0E9440008C2F8295807F0E94FA
:1000F00040002FEF89EF90E0215080409040E1F7E1
:1001000000C00000CF91089585B1807C85B92FEFA4
:1001100089E698E1215080409040E1F700C000005E
:1001200083E30E94580082E30E94580088E20E9404
:1001300058008CE00E94580086E00E94580081E040
:100140000E9458002FEF86E791E0215080409040B8
:10015000E1F700C00000089581E00E9458002FEFF1
:1001600086E791E0215080409040E1F700C0000018
:100170000895CF93DF93EC018991882319F00E94B1
:100180006E00FACFDF91CF910895CF93DF93CDB773
:10019000DEB728970FB6F894DEBF0FBECDBF4AE09A
:1001A000BE016F5F7F4F0E94F700CE0101960E9453
:1001B000B90028960FB6F894DEBF0FBECDBFDF9111
:1001C000CF91089584B18F6384B90E9484000E9406
:1001D000AC0088E30E946E002AEA36EE86E991E0E0
:1001E0002150304080409040D9F70000F5CFBB2728
:1001F0004A3031F4992322F4BDE2909581959F4FC6
:100200000C940301BB27FB015527AA27880F991FD0
:10021000AA1FA41710F0A41B83955051B9F7A05D35
:10022000AA3308F0A95DA193009779F7B111B193B2
:100230001192CB010C941C01DC01FC01672F719120
:100240007723E1F7329704C07C916D9370836291BC
:0C025000AE17BF07C8F30895F894FFCF65
:00000001FF
