:100000000C9434000C943E000C943E000C943E0082
:100010000C943E000C943E000C943E000C943E0068
:100020000C943E000C943E000C943E000C943E0058
:100030000C943E000C943E000C943E000C943E0048
:100040000C943E000C943E000C943E000C943E0038
:100050000C943E000C943E000C943E000C943E0028
:100060000C943E000C943E0011241FBECFEFD8E04C
:10007000DEBFCDBF0E9450000C946F000C940000B6
:1000800095B19F6395B95A9A882319F0813021F070
:10009000089585B1807C02C085B1897F85B90895B6
:1000A0008AB1877E8AB98BB188618BB984B18F633D
:1000B00084B9529A89B199B192959170909583FBC8
:1000C000882780F989230E9440002FEF83EC99E074
:1000D000215080409040E1F700C00000EBCFF89441
:0200E000FFCF50
:00000001FF
