:100000000C9434000C9446000C9446000C9446006A
:100010000C9446000C9446000C9446000C94460048
:100020000C9446000C9446000C9446000C94460038
:100030000C9446000C9446000C9446000C94460028
:100040000C9446000C9446000C9446000C94460018
:100050000C9446000C9446000C9446000C94460008
:100060000C9446000C94460011241FBECFEFD8E03C
:10007000DEBFCDBF21E0A0E0B1E001C01D92A03104
:10008000B207E1F70E946A000C9443010C9400004F
:10009000EBB1E37CEBB9EBB1880F991F8295929598
:1000A000907F9827807F98278E2B62957295707F1E
:1000B0007627607F7627682B440F551F440F551F06
:1000C000440F551F462B220F331F220F331F242BA3
:1000D0002BB908958AB18C638AB914B861E070E0D5
:1000E0003CC0FF2309F4C4C0E11103C0BB2309F4E1
:1000F000BFC0109203011092020140E050E0E111F4
:1001000066C0109207011092060180E090E0B111E4
:100110007EC0332309F46CC01092090110920801CB
:1001200020E02295207FA0E0E0E0F0E0F0930101E4
:10013000E09300013BB1337C3BB93BB12A2B232B2D
:10014000440F551F440F551F422B880F991F880FCE
:10015000991F880F991F842B8BB933B13170832F6E
:1001600090E090930B0180930A0183B141E050E04D
:10017000E82FE27081FD02C040E050E050930F0193
:1001800040930E0183B141E050E0B82FB47082FD7E
:1001900002C040E050E0509305014093040183B158
:1001A00041E050E0F82FF87083FD02C040E050E0DD
:1001B00050930D0140930C01332309F492CF109218
:1001C000030110920201E11134C040E050E0A1E0CF
:1001D00020E0F111A0E08A2F922F909307018093E5
:1001E000060131112EC0EE2309F491CFB1110FC0D9
:1001F000109209011092080120E0E11116C0B1111E
:1002000014C0FF2391F0A0E2E1E0F0E08FCF21E005
:10021000A0E0F11120E020930801A0930901311121
:100220002EC02295207FEE2351F3A0E0E0E0F0E025
:100230007DCF109207011092060140E050E080E06F
:1002400090E0EE2309F463CFBB2309F31092090178
:100250001092080120E0332321F3BB2309F461CF7E
:10026000F1115FCF2295207FA0E2E1E0F0E05ECFC8
:10027000709303016093020141E050E040CFEE2310
:0A02800009F44FCFEACFF894FFCF46
:00000001FF
