:100000000C9434000C943E000C943E000C943E0082
:100010000C943E000C943E000C943E000C943E0068
:100020000C943E000C943E000C943E000C943E0058
:100030000C943E000C943E000C943E000C943E0048
:100040000C943E000C943E000C943E000C943E0038
:100050000C943E000C943E000C943E000C943E0028
:100060000C943E000C943E0011241FBECFEFD8E04C
:10007000DEBFCDBF0E9440000C9457000C940000DE
:100080008AB1837F8AB984B18F6084B931E089B144
:1000900099B125B182FB882780F993FB992790F9C4
:1000A000892B8327922F907F892B85B9F0CFF894E5
:0200B000FFCF80
:00000001FF
