:100000000C9434000C9446000C9446000C9446006A
:100010000C9446000C9446000C9446000C94460048
:100020000C9446000C9446000C9446000C94460038
:100030000C9446000C9446000C9446000C94460028
:100040000C9446000C9446000C9446000C94460018
:100050000C9446000C9446000C9446000C94460008
:100060000C9446000C94460011241FBECFEFD8E03C
:10007000DEBFCDBF21E0A0E0B1E001C01D92A03104
:10008000B207E1F70E9465000C94EB000C940000AD
:10009000EBB1E37CEBB9EBB1F5E0880F991FFA9572
:1000A000E1F78E2BA4E0660F771FAA95E1F7682B86
:1000B000B3E0440F551FBA95E1F7462B220F331FCB
:1000C000220F331F242B2BB908958AB18C638AB970
:1000D00014B8E3B1E1708E2F90E090930B01809300
:1000E0000A0183B121E030E0982F927081FD02C0B7
:1000F00020E030E030930F0120930E0143B121E066
:1001000030E0842F847042FD02C020E030E0309364
:1001100005012093040143B121E030E0F42FF87091
:1001200043FF20E020930C0130930D01E11109C041
:10013000FF2329F0911105C0882329F002C021E096
:1001400001C020E030E02093020130930301EE2350
:1001500019F0992331F002C0911103C040E050E042
:1001600004C041E050E0F11140E04093060150939B
:100170000701EE2329F0992319F0882319F008C00C
:10018000882331F061E070E0FF2321F060E002C0DD
:1001900060E070E06093080170930901EE2349F07C
:1001A000992381F0882371F081E090E0FF2361F0D2
:1001B00007C0911107C0811105C081E0F11104C091
:1001C00080E002C080E090E0809300019093010104
:0A01D0000E9448007ECFF894FFCF94
:00000001FF
