:100000000C9434000C943E000C943E000C943E0082
:100010000C943E000C943E000C943E000C943E0068
:100020000C943E000C943E000C943E000C943E0058
:100030000C943E000C943E000C943E000C943E0048
:100040000C943E000C943E000C943E000C943E0038
:100050000C943E000C943E000C943E000C943E0028
:100060000C943E000C943E0011241FBECFEFD8E04C
:10007000DEBFCDBF0E9440000C9471000C940000C4
:100080008AB184668AB98AB1877E8AB98BB1886160
:100090008BB984B18F6084B95D9A5E985A9A8FE962
:1000A0009FE00197F1F700C000005A9829B189B18B
:1000B00095B184FB442740F950E0BA0181E06827FC
:1000C00023FB882780F98623907F892B85B99FEFB2
:1000D00029E688E1915020408040E1F700C000000F
:0600E000DBCFF894FFCF16
:00000001FF
