:100000000C9434000C943E000C943E000C943E0082
:100010000C943E000C943E000C943E000C943E0068
:100020000C943E000C943E000C943E000C943E0058
:100030000C943E000C943E000C943E000C943E0048
:100040000C943E000C943E000C943E000C943E0038
:100050000C943E000C943E000C943E000C943E0028
:100060000C943E000C943E0011241FBECFEFD8E04C
:10007000DEBFCDBF0E9440000C9460000C940000D5
:100080008AB1877E8AB98BB188618BB984B18F6060
:1000900084B929B189B195B182958170809523FB8E
:1000A000222720F98223907F892B85B92FEF83ECBB
:1000B00099E0215080409040E1F700C00000E9CF76
:0400C000F894FFCFE2
:00000001FF
