:100000000C9434000C943E000C943E000C943E0082
:100010000C943E000C943E000C943E000C943E0068
:100020000C943E000C943E000C943E000C943E0058
:100030000C943E000C943E000C943E000C943E0048
:100040000C943E000C943E000C943E000C943E0038
:100050000C943E000C943E000C943E000C943E0028
:100060000C943E000C943E0011241FBECFEFD8E04C
:10007000DEBFCDBF0E9440000C9496000C9400009F
:100080008AB1837E8AB984B18F6184B9A9B139B14B
:1000900033FB332730F929B122952170822F90E06C
:1000A000FC01EE0FFF1FEE0FFF1F832F90E0880F64
:1000B000991F8E2B9F2BA2FB662760F970E0862B81
:1000C000972B019682FB442740F950E0FC01E27037
:1000D000FF2781709927311104C0211102C02B9A8A
:1000E00001C02B98892B11F0289A01C02898EF2B7A
:1000F00011F0299A01C02998452B11F02A9A01C0C4
:100100002A982C9A2FEF89E698E121508040904060
:10011000E1F700C000002C982FEF89E698E121500C
:1001200080409040E1F700C00000B0CFF894FFCFCE
:00000001FF
