:100000000C9462000C948A000C948A000C948A0070
:100010000C948A000C948A000C948A000C948A0038
:100020000C948A000C948A000C948A000C948A0028
:100030000C948A000C948A000C948A000C948A0018
:100040000C94C9020C948A000C9439030C94130389
:100050000C948A000C948A000C948A000C948A00F8
:100060000C948A000C948A000000000025002800EF
:100070002B0000000000240027002A0000000000E0
:1000800023002600290004040404040404040202DA
:100090000202020203030303030301020408102007
:1000A0004080010204081020010204081020000012
:1000B0000008000201000003040700000000000027
:1000C0000000870411241FBECFEFD8E0DEBFCDBFF4
:1000D00011E0A0E0B1E0ECEBF9E002C005900D9278
:1000E000A232B107D9F721E0A2E2B1E001C01D922E
:1000F000A83CB207E1F710E0C2E6D0E004C02197C7
:10010000FE010E94D604C136D107C9F70E946B03D5
:100110000C94DC040C940000833081F028F48130CE
:1001200099F08230A9F008958730A9F08830C9F09D
:100130008430B1F4809180008F7D03C08091800075
:100140008F7780938000089584B58F7784BD08955C
:1001500084B58F7DFBCF8091B0008F778093B00006
:1001600008958091B0008F7DF9CFCF93DF93282F32
:1001700030E0F901E255FF4F8491F901E656FF4F57
:10018000D491F901EA57FF4FC491CC23A1F081111A
:100190000E948C00EC2FF0E0EE0FFF1FE458FF4FA1
:1001A000A591B491EC91ED2381E090E009F480E019
:1001B000DF91CF91089580E090E0FACFCF93DF9365
:1001C00090E0FC01E656FF4F24918A579F4FFC01B7
:1001D00084918823D1F090E0880F991FFC01EE589C
:1001E000FF4FA591B491FC01E859FF4FC591D491FF
:1001F000623071F49FB7F8943C91822F80958323ED
:100200008C93E8812E2B28839FBFDF91CF91089597
:100210008FB7F894EC912E2B2C938FBFF6CF3FB76E
:10022000F8948091270190912801A0912901B09123
:100230002A0126B5A89B05C02F3F19F00196A11DE4
:10024000B11D3FBFBA2FA92F982F8827BC01CD0120
:10025000620F711D811D911D42E0660F771F881F7F
:10026000991F4A95D1F70895AF92BF92CF92DF922E
:10027000EF92FF920F931F93CF93DF936C017B015B
:100280008B01040F151FEB015E01AE18BF08C017EC
:10029000D10759F06991D601ED91FC910190F0815F
:1002A000E02DC6010995892B79F7C501DF91CF9122
:1002B0001F910F91FF90EF90DF90CF90BF90AF9084
:1002C0000895FC01538D448D252F30E0842F90E05C
:1002D000821B930B541710F0CF9608950197089541
:1002E000FC01918D828D981761F0A28DAE0FBF2F0A
:1002F000B11D5D968C91928D9F5F9F73928F90E060
:1003000008958FEF9FEF0895FC01918D828D9817CE
:1003100031F0828DE80FF11D858D90E008958FEF0B
:100320009FEF0895FC01918D228D892F90E0805CD4
:100330009F4F821B91098F73992708958BE291E05B
:100340000E94920121E0892B09F420E0822F089578
:1003500080E090E0892B29F00E949E0181110C948D
:1003600000000895FC01A48DA80FB92FB11DA35A58
:10037000BF4F2C91848D90E001968F739927848FC5
:10038000A689B7892C93A089B1898C9183708064E8
:100390008C93938D848D981306C00288F389E02D89
:1003A00080818F7D80830895EF92FF920F931F933A
:1003B000CF93DF93EC0181E0888F9B8D8C8D981318
:1003C0001AC0E889F989808185FF15C09FB7F89424
:1003D000EE89FF896083E889F98980818370806470
:1003E00080839FBF81E090E0DF91CF911F910F91BB
:1003F000FF90EF900895F62E0B8D10E00F5F1F4FCA
:100400000F731127E02E8C8D8E110CC00FB607FCD8
:10041000FACFE889F989808185FFF5CFCE010E9466
:10042000B201F1CFEB8DEC0FFD2FF11DE35AFF4F21
:10043000F0829FB7F8940B8FEA89FB8980818062F4
:10044000CFCFCF93DF93EC01888D8823B9F0AA89B1
:10045000BB89E889F9898C9185FD03C0808186FD7F
:100460000DC00FB607FCF7CF8C9185FFF2CF8081CE
:1004700085FFEDCFCE010E94B201E9CFDF91CF9190
:100480000895FC0101900020E9F73197AF01481B66
:10049000590BBC018BE291E00C9434018F929F9236
:1004A000AF92BF92CF92DF92EF92FF920F931F9382
:1004B000CF93DF93CDB7DEB7A1970FB6F894DEBF29
:1004C0000FBECDBF6B017C01F7FE41C06DE28BE238
:1004D00091E00E94D4018C0122273327A9012C1915
:1004E0003D094E095F0919A2CE0181967C019AE06F
:1004F000892E912CA12CB12CCA01B901A50194011E
:100500000E94B404605DF70162937F0121153105FB
:100510004105510589F790E080E0309719F0CF014F
:100520000E944102800F911FA1960FB6F894DEBF82
:100530000FBECDBFDF91CF911F910F91FF90EF9034
:10054000DF90CF90BF90AF909F908F900895AC01B7
:100550009B0119A28E010F5D1F4F8AE0C82ED12C7E
:10056000E12CF12CCA01B901A70196010E94B40443
:10057000605DF80162938F01211531054105510538
:1005800089F790E080E0309779F2CF010E94410234
:10059000CBCF1F920F920FB60F9211242F933F9340
:1005A0008F939F93AF93BF938091230190912401E8
:1005B000A0912501B09126013091220123E0230F63
:1005C0002D3758F50196A11DB11D2093220180936E
:1005D000230190932401A0932501B09326018091DB
:1005E000270190912801A0912901B0912A0101963B
:1005F000A11DB11D8093270190932801A09329018B
:10060000B0932A01BF91AF919F918F913F912F910C
:100610000F900FBE0F901F90189526E8230F02969B
:10062000A11DB11DD2CF1F920F920FB60F921124B0
:100630002F933F934F935F936F937F938F939F93EA
:10064000AF93BF93EF93FF938BE291E00E94B201CF
:10065000FF91EF91BF91AF919F918F917F916F919A
:100660005F914F913F912F910F900FBE0F901F9070
:1006700018951F920F920FB60F9211242F938F93FC
:100680009F93EF93FF93E0913B01F0913C018081B8
:10069000E0914101F091420182FD1BC09081809167
:1006A00044018F5F8F7320914501821741F0E091E3
:1006B0004401F0E0E55DFE4F958F80934401FF918A
:1006C000EF919F918F912F910F900FBE0F901F90E0
:1006D00018958081F4CF789484B5826084BD84B508
:1006E000816084BD85B5826085BD85B5816085BD2D
:1006F00080916E00816080936E00109281008091E5
:10070000810082608093810080918100816080936C
:100710008100809180008160809380008091B10091
:1007200084608093B1008091B00081608093B000BC
:1007300080917A00846080937A0080917A00826050
:1007400080937A0080917A00816080937A00809112
:100750007A00806880937A001092C10062E082E0A3
:100760000E94DE0062E083E00E94DE0061E08DE036
:100770000E94DE00E0913B01F0913C0182E0808329
:10078000E0913701F09138011082E0913901F09148
:100790003A018FEC808310924301E0913F01F09188
:1007A000400186E08083E0913D01F0913E0180812F
:1007B00080618083E0913D01F0913E0180818860FD
:1007C0008083E0913D01F0913E01808180688083CB
:1007D000E0913D01F0913E0180818F7D80832BEB84
:1007E000822E20E0922EC7EAD0E003E910E030E04C
:1007F000A32E30E0B32E82E00E94B5007C01CC2411
:10080000C394892B09F0C12C83E00E94B500DD243C
:10081000D394009709F0D12CEF2809F074C0EE248E
:10082000E394892B09F4E12CF4018491FE01F49006
:10083000F80174907720A1F081110E948C00E72DBF
:10084000F0E0EE0FFF1FE859FF4FA591B4918FB76D
:10085000F8949C91E11059C0F094F922FC928FBF5A
:1008600082E191E00E9441026C2D70E090E080E016
:100870000E944E0285E191E00E9441026D2D70E0E0
:1008800090E080E00E944E028AE191E00E944102E5
:100890006E2D70E090E080E00E944E028FE191E0CA
:1008A0000E9441020E940F012B013C0184EFC82EDF
:1008B000DD24D394E12CF12C0E940F0164197509F9
:1008C00086099709683E734081059105A8F3F1E018
:1008D000CF1AD108E108F10828EE420E23E0521E9B
:1008E000611C711CC114D104E104F10429F7A114A5
:1008F000B10409F480CF0E949E01882309F47BCFC4
:100900000E94000078CFED2C8FCFF92AA7CFEBE221
:10091000F1E01382128288EE93E0A0E0B0E08483DD
:100920009583A683B78384E091E09183808385ECEF
:1009300090E09587848784EC90E09787868780ECA9
:1009400090E0918B808B81EC90E0938B828B82EC9A
:1009500090E0958B848B86EC90E0978B868B118E44
:10096000128E138E148E0895A1E21A2EAA1BBB1BA1
:10097000FD010DC0AA1FBB1FEE1FFF1FA217B3076B
:10098000E407F50720F0A21BB30BE40BF50B661F81
:10099000771F881F991F1A9469F760957095809545
:1009A00090959B01AC01BD01CF010895EE0FFF1F93
:0C09B0000590F491E02D0994F894FFCF1D
:1009BC0000000000D4013401610121029201700198
:1009CC008401583D002020593D0020205A3D000D47
:0209DC000A000F
:00000001FF
