:100000000C9462000C948A000C948A000C948A0070
:100010000C948A000C948A000C948A000C948A0038
:100020000C948A000C948A000C948A000C948A0028
:100030000C948A000C948A000C948A000C948A0018
:100040000C9404030C948A000C9474030C944E03D7
:100050000C948A000C948A000C948A000C948A00F8
:100060000C948A000C948A000000000024002700F1
:100070002A0000000000250028002B0000000000DE
:1000800023002600290004040404040404040202DA
:100090000202020203030303030301020408102007
:1000A0004080010204081020010204081020000012
:1000B0000008000201000003040700000000000027
:1000C0000000010511241FBECFEFD8E0DEBFCDBF79
:1000D00011E0A0E0B1E0E0EBFAE002C005900D9283
:1000E000A033B107D9F721E0A0E3B1E001C01D9230
:1000F000A63DB207E1F710E0C2E6D0E004C02197C8
:10010000FE010E945005C136D107C9F70E94A6031F
:100110000C9456050C940000833081F028F4813053
:1001200099F08230A9F008958730A9F08830C9F09D
:100130008430B1F4809180008F7D03C08091800075
:100140008F7780938000089584B58F7784BD08955C
:1001500084B58F7DFBCF8091B0008F778093B00006
:1001600008958091B0008F7DF9CFCF93DF93282F32
:1001700030E0F901E255FF4F8491F901E656FF4F57
:10018000D491F901EA57FF4FC491CC23A1F081111A
:100190000E948C00EC2FF0E0EE0FFF1FE458FF4FA1
:1001A000A591B491EC91ED2381E090E009F480E019
:1001B000DF91CF91089580E090E0FACF1F93CF9325
:1001C000DF93282F30E0F901E255FF4F8491F901C8
:1001D000E656FF4FD491F901EA57FF4FC491CC2363
:1001E000A9F0162F81110E948C00EC2FF0E0EE0F89
:1001F000FF1FEE58FF4FA591B4918FB7F894EC9183
:10020000111108C0D095DE23DC938FBFDF91CF9111
:100210001F910895DE2BF8CFCF93DF9390E0FC0180
:10022000E656FF4F24918A579F4FFC018491882303
:10023000C9F090E0880F991FFC01E859FF4FA59184
:10024000B491FC01EE58FF4FC591D49161110DC0DE
:100250009FB7F8948C91209582238C9388812823D2
:1002600028839FBFDF91CF910895623051F49FB7EB
:10027000F8943C91822F809583238C93E8812E2BD8
:10028000EFCF8FB7F894EC912E2B2C938FBFEACF42
:100290003FB7F8948091350190913601A0913701D4
:1002A000B091380126B5A89B05C02F3F19F00196E3
:1002B000A11DB11D3FBFBA2FA92F982F8827BC01C0
:1002C000CD01620F711D811D911D42E0660F771FE8
:1002D000881F991F4A95D1F70895AF92BF92CF9288
:1002E000DF92EF92FF920F931F93CF93DF936C01F6
:1002F0007B018B01040F151FEB015E01AE18BF08D7
:10030000C017D10759F06991D601ED91FC91019088
:10031000F081E02DC6010995892B79F7C501DF91A0
:10032000CF911F910F91FF90EF90DF90CF90BF90F2
:10033000AF900895FC01538D448D252F30E0842F1C
:1003400090E0821B930B541710F0CF9608950197FD
:100350000895FC01918D828D981761F0A28DAE0FEA
:10036000BF2FB11D5D968C91928D9F5F9F73928F71
:1003700090E008958FEF9FEF0895FC01918D828D9D
:10038000981731F0828DE80FF11D858D90E008956A
:100390008FEF9FEF0895FC01918D228D892F90E0C2
:1003A000805C9F4F821B91098F739927089589E381
:1003B00091E00E94CB0121E0892B09F420E0822FFB
:1003C000089580E090E0892B29F00E94D7018111E7
:1003D0000C9400000895FC01A48DA80FB92FB11D45
:1003E000A35ABF4F2C91848D90E001968F7399276B
:1003F000848FA689B7892C93A089B1898C91837049
:1004000080648C93938D848D981306C00288F38941
:10041000E02D80818F7D80830895EF92FF920F936E
:100420001F93CF93DF93EC0181E0888F9B8D8C8DA0
:1004300098131AC0E889F989808185FF15C09FB794
:10044000F894EE89FF896083E889F9898081837057
:10045000806480839FBF81E090E0DF91CF911F9106
:100460000F91FF90EF900895F62E0B8D10E00F5F27
:100470001F4F0F731127E02E8C8D8E110CC00FB6FD
:1004800007FCFACFE889F989808185FFF5CFCE0195
:100490000E94EB01F1CFEB8DEC0FFD2FF11DE35A24
:1004A000FF4FF0829FB7F8940B8FEA89FB89808118
:1004B0008062CFCFCF93DF93EC01888D8823B9F092
:1004C000AA89BB89E889F9898C9185FD03C080815F
:1004D00086FD0DC00FB607FCF7CF8C9185FFF2CFDC
:1004E000808185FFEDCFCE010E94EB01E9CFDF9146
:1004F000CF910895FC0101900020E9F73197AF01F9
:10050000481B590BBC0189E391E00C946D018F925B
:100510009F92AF92BF92CF92DF92EF92FF920F9392
:100520001F93CF93DF93CDB7DEB7A1970FB6F894A3
:10053000DEBF0FBECDBF6C01990FEE08FF08F7FEBE
:1005400041C06DE289E391E00E940D028C012227F7
:100550003327A9012C193D094E095F0919A2CE01C3
:1005600081967C019AE0892E912CA12CB12CCA0194
:10057000B901A50194010E942E05605DF701629307
:100580007F01211531054105510589F790E080E093
:10059000309719F0CF010E947A02800F911FA19627
:1005A0000FB6F894DEBF0FBECDBFDF91CF911F9184
:1005B0000F91FF90EF90DF90CF90BF90AF909F9002
:1005C0008F900895A701960119A28E010F5D1F4F0C
:1005D0008AE0C82ED12CE12CF12CCA01B901A70167
:1005E00096010E942E05605DF80162938F0121152E
:1005F00031054105510589F790E080E0309779F2A7
:10060000CF010E947A02CBCF1F920F920FB60F92AA
:1006100011242F933F938F939F93AF93BF93809118
:10062000310190913201A0913301B09134013091A8
:10063000300123E0230F2D3758F50196A11DB11D80
:10064000209330018093310190933201A0933301C4
:10065000B09334018091350190913601A09137011A
:10066000B09138010196A11DB11D80933501909381
:100670003601A0933701B0933801BF91AF919F919C
:100680008F913F912F910F900FBE0F901F90189553
:1006900026E8230F0296A11DB11DD2CF1F920F9203
:1006A0000FB60F9211242F933F934F935F936F9345
:1006B0007F938F939F93AF93BF93EF93FF9389E3C0
:1006C00091E00E94EB01FF91EF91BF91AF919F915B
:1006D0008F917F916F915F914F913F912F910F90EB
:1006E0000FBE0F901F9018951F920F920FB60F928A
:1006F00011242F938F939F93EF93FF93E0914901E0
:10070000F0914A018081E0914F01F091500182FD0A
:100710001BC09081809152018F5F8F732091530194
:10072000821741F0E0915201F0E0E75CFE4F958FB7
:1007300080935201FF91EF919F918F912F910F9094
:100740000FBE0F901F9018958081F4CF789484B5D8
:10075000826084BD84B5816084BD85B5826085BDBD
:1007600085B5816085BD80916E00816080936E004B
:10077000109281008091810082608093810080913D
:1007800081008160809381008091800081608093EE
:1007900080008091B10084608093B1008091B000AE
:1007A00081608093B00080917A00846080937A00A9
:1007B00080917A00826080937A0080917A008160D3
:1007C00080937A0080917A00806880937A001092FA
:1007D000C10062E082E00E940C0162E083E00E94BE
:1007E0000C0161E089E00E940C0161E086E00E945A
:1007F0000C0161E088E00E940C0160E08AE00E9448
:100800000C0160E087E00E940C0161E084E00E943E
:100810000C0161E085E00E940C0161E08CE00E9427
:100820000C0161E08DE00E940C0160E08CE00E9410
:10083000DE0060E08DE00E94DE00E0914901F09171
:100840004A0182E08083E0914501F09146011082E7
:10085000E0914701F09148018FEC808310925101A3
:10086000E0914D01F0914E0186E08083E0914B01D3
:10087000F0914C01808180618083E0914B01F09187
:100880004C01808188608083E0914B01F0914C01A4
:10089000808180688083E0914B01F0914C018081E0
:1008A0008F7D8083C3E2D0E000E010E082E00E9410
:1008B000B5004C01FF24F394892B09F0F12CAF2CE7
:1008C000B12C83E00E94B50061E0009709F060E080
:1008D000C62ED12C6F25E62EF12C892821F49924DF
:1008E0009394892B09F0912C89E00E94DE00692DF8
:1008F00086E00E94DE0060E088E00E94DE00CE011B
:100900000197F1F761E088E00E94DE00CE010197D7
:10091000F1F760E088E00E94DE008AE00E94B50006
:10092000782E592E87E00E94B500882E692E672DFB
:1009300084E00E94DE00682D85E00E94DE0082E1F6
:1009400091E00E947A02C5010E94870285E191E050
:100950000E947A02C6010E94870289E191E00E940A
:100960007A02C7010E9487028EE191E00E947A021A
:10097000892D90E00E94870283E291E00E947A0232
:10098000872D952D0E94870288E291E00E947A02CD
:10099000882D962D0E9487028DE291E00E947A02B6
:1009A0000E9448014B015C0184EFC82EDD24D394E2
:1009B000E12CF12C0E944801681979098A099B09E8
:1009C000683E734081059105A8F321E0C21AD10861
:1009D000E108F10888EE880E83E0981EA11CB11C86
:1009E000C114D104E104F10429F70115110509F43A
:1009F0005DCF0E94D701882309F458CF0E940000E0
:100A000055CFE9E3F1E01382128288EE93E0A0E093
:100A1000B0E084839583A683B78384E091E09183DB
:100A2000808385EC90E09587848784EC90E09787BD
:100A3000868780EC90E0918B808B81EC90E0938BAB
:100A4000828B82EC90E0958B848B86EC90E0978B88
:100A5000868B118E128E138E148E0895A1E21A2E9B
:100A6000AA1BBB1BFD010DC0AA1FBB1FEE1FFF1F52
:100A7000A217B307E407F50720F0A21BB30BE40BA2
:100A8000F50B661F771F881F991F1A9469F76095E9
:100A90007095809590959B01AC01BD01CF010895A3
:100AA000EE0FFF1F0590F491E02D0994F894FFCF0D
:100AB000000000000D026D019A015A02CB01A9014C
:100AC000BD01583D0020593D002044313D002044E7
:100AD000323D002051313D002051323D000D0A00D1
:00000001FF
