:100000000C9434000C943E000C943E000C943E0082
:100010000C943E000C943E000C943E000C943E0068
:100020000C943E000C943E000C943E000C943E0058
:100030000C943E000C943E000C943E000C943E0048
:100040000C943E000C943E000C943E000C943E0038
:100050000C943E000C943E000C943E000C943E0028
:100060000C943E000C943E0011241FBECFEFD8E04C
:10007000DEBFCDBF0E9440000C94BF000C94000076
:1000800084B18F6084B9259A8AB1837C8AB939B1E9
:1000900089B1887099B1907129B12072E32FE47011
:1000A00032FD34C061E030E0811101C060E0462FD4
:1000B000532F882391F131E080E0911101C030E0AD
:1000C000632F782F222309F441C081E090E0289A21
:1000D000452B71F1299A672B71F12A9A892B71F1BD
:1000E0002B9A2D9A2FEF89E698E12150804090407D
:1000F000E1F700C000002D982FEF89E698E121502C
:1001000080409040E1F700C00000C1CF811121C0C4
:1001100031E0211130E0432F582F911111C0EE230F
:1001200039F160E070E080E090E02898452B91F68E
:100130002998672B91F62A98892B91F62B98D1CF85
:1001400061E070E0E111EFCF2111BFCF80E090E0DE
:10015000BECF40E050E021E080E0911120E0622F2E
:10016000782F911108C0E111DECF80E090E0AFCF91
:1001700060E070E0A7CF81E090E02898D7CFF894B6
:02018000FFCFAF
:00000001FF
