:100000000C9434000C943E000C943E000C943E0082
:100010000C943E000C943E000C943E000C943E0068
:100020000C943E000C943E000C943E000C943E0058
:100030000C943E000C943E000C943E000C943E0048
:100040000C943E000C943E000C943E000C943E0038
:100050000C943E000C943E000C943E000C943E0028
:100060000C943E000C943E0011241FBECFEFD8E04C
:10007000DEBFCDBF0E9440000C945E000C940000D7
:10008000259A209A5798289A4F9B02C0289A01C017
:1000900028982D9A2FEF89E698E1215080409040D2
:1000A000E1F700C000002D982FEF89E698E121507C
:1000B00080409040E1F700C00000E6CFF894FFCF09
:00000001FF
