:100000000C9434000C943E000C943E000C943E0082
:100010000C943E000C943E000C943E000C943E0068
:100020000C943E000C943E000C943E000C943E0058
:100030000C943E000C943E000C943E000C943E0048
:100040000C943E000C943E000C943E000C943E0038
:100050000C943E000C943E000C943E000C943E0028
:100060000C943E000C943E0011241FBECFEFD8E04C
:10007000DEBFCDBF0E9440000C94BC000C94000079
:100080008AB18C6F8AB9209A81E0E4EE70E960EC65
:1000900054E648E438E020EE90E485B9EBB9AFEFE0
:1000A000B9E6F8E1A150B040F040E1F700C000002F
:1000B00015B87BB9AFEFB9E6F8E1A150B040F04018
:1000C000E1F700C0000015B86BB9AFEFB9E6F8E191
:1000D000A150B040F040E1F700C0000015B85BB996
:1000E000AFEFB9E6F8E1A150B040F040E1F700C051
:1000F000000015B84BB9AFEFB9E6F8E1A150B04038
:10010000F040E1F700C0000015B83BB9AFEFB9E629
:10011000F8E1A150B040F040E1F700C0000085B91F
:100120002BB9AFEFB9E6F8E1A150B040F040E1F7EC
:1001300000C0000015B81BB8AFEFB9E6F8E1A15058
:10014000B040F040E1F700C0000015B89BB9AFEF38
:10015000B9E6F8E1A150B040F040E1F700C000007E
:1001600085B91BB8AFEFB9E6F8E1A150B040F04057
:0C017000E1F700C0000091CFF894FFCF31
:00000001FF
